{
	"_format": "hh-sol-artifact-1",
	"contractName": "Upload",
	"sourceName": "contracts/Upload.sol",
	"abi": [
		{
			"inputs": [
				{
					"internalType": "address",
					"name": "_user",
					"type": "address"
				},
				{
					"internalType": "string",
					"name": "_ipfsHash",
					"type": "string"
				}
			],
			"name": "uploadFile",
			"outputs": [],
			"stateMutability": "nonpayable",
			"type": "function"
		},
		{
			"inputs": [
				{
					"internalType": "address",
					"name": "_user",
					"type": "address"
				}
			],
			"name": "viewFiles",
			"outputs": [
				{
					"internalType": "string[]",
					"name": "",
					"type": "string[]"
				}
			],
			"stateMutability": "view",
			"type": "function"
		}
	],
	"bytecode": "0x6080604052348015600f57600080fd5b506109c28061001f6000396000f3fe608060405234801561001057600080fd5b50600436106100365760003560e01c806367f72fa91461003b578063e501287a14610057575b600080fd5b6100556004803603810190610050919061043b565b610087565b005b610071600480360381019061006c9190610497565b6100fc565b60405161007e9190610605565b60405180910390f35b6000808373ffffffffffffffffffffffffffffffffffffffff1673ffffffffffffffffffffffffffffffffffffffff168152602001908152602001600020819080600181540180825580915050600190039060005260206000200160009091909190915090816100f7919061083d565b505050565b6060818073ffffffffffffffffffffffffffffffffffffffff163373ffffffffffffffffffffffffffffffffffffffff161461016d576040517f08c379a00000000000000000000000000000000000000000000000000000000081526004016101649061096c565b60405180910390fd5b6000808473ffffffffffffffffffffffffffffffffffffffff1673ffffffffffffffffffffffffffffffffffffffff168152602001908152602001600020805480602002602001604051908101604052809291908181526020016000905b828210156102775783829060005260206000200180546101ea90610656565b80601f016020809104026020016040519081016040528092919081815260200182805461021690610656565b80156102635780601f1061023857610100808354040283529160200191610263565b820191906000526020600020905b81548152906001019060200180831161024657829003601f168201915b5050505050815260200190600101906101cb565b50505050915050919050565b6000604051905090565b600080fd5b600080fd5b600073ffffffffffffffffffffffffffffffffffffffff82169050919050565b60006102c282610297565b9050919050565b6102d2816102b7565b81146102dd57600080fd5b50565b6000813590506102ef816102c9565b92915050565b600080fd5b600080fd5b6000601f19601f8301169050919050565b7f4e487b7100000000000000000000000000000000000000000000000000000000600052604160045260246000fd5b610348826102ff565b810181811067ffffffffffffffff8211171561036757610366610310565b5b80604052505050565b600061037a610283565b9050610386828261033f565b919050565b600067ffffffffffffffff8211156103a6576103a5610310565b5b6103af826102ff565b9050602081019050919050565b82818337600083830152505050565b60006103de6103d98461038b565b610370565b9050828152602081018484840111156103fa576103f96102fa565b5b6104058482856103bc565b509392505050565b600082601f830112610422576104216102f5565b5b81356104328482602086016103cb565b91505092915050565b600080604083850312156104525761045161028d565b5b6000610460858286016102e0565b925050602083013567ffffffffffffffff81111561048157610480610292565b5b61048d8582860161040d565b9150509250929050565b6000602082840312156104ad576104ac61028d565b5b60006104bb848285016102e0565b91505092915050565b600081519050919050565b600082825260208201905092915050565b6000819050602082019050919050565b600081519050919050565b600082825260208201905092915050565b60005b8381101561052a57808201518184015260208101905061050f565b60008484015250505050565b6000610541826104f0565b61054b81856104fb565b935061055b81856020860161050c565b610564816102ff565b840191505092915050565b600061057b8383610536565b905092915050565b6000602082019050919050565b600061059b826104c4565b6105a581856104cf565b9350836020820285016105b7856104e0565b8060005b858110156105f357848403895281516105d4858261056f565b94506105df83610583565b925060208a019950506001810190506105bb565b50829750879550505050505092915050565b6000602082019050818103600083015261061f8184610590565b905092915050565b7f4e487b7100000000000000000000000000000000000000000000000000000000600052602260045260246000fd5b6000600282049050600182168061066e57607f821691505b60208210810361068157610680610627565b5b50919050565b60008190508160005260206000209050919050565b60006020601f8301049050919050565b600082821b905092915050565b6000600883026106e97fffffffffffffffffffffffffffffffffffffffffffffffffffffffffffffffff826106ac565b6106f386836106ac565b95508019841693508086168417925050509392505050565b6000819050919050565b6000819050919050565b600061073a6107356107308461070b565b610715565b61070b565b9050919050565b6000819050919050565b6107548361071f565b61076861076082610741565b8484546106b9565b825550505050565b600090565b61077d610770565b61078881848461074b565b505050565b5b818110156107ac576107a1600082610775565b60018101905061078e565b5050565b601f8211156107f1576107c281610687565b6107cb8461069c565b810160208510156107da578190505b6107ee6107e68561069c565b83018261078d565b50505b505050565b600082821c905092915050565b6000610814600019846008026107f6565b1980831691505092915050565b600061082d8383610803565b9150826002028217905092915050565b610846826104f0565b67ffffffffffffffff81111561085f5761085e610310565b5b6108698254610656565b6108748282856107b0565b600060209050601f8311600181146108a75760008415610895578287015190505b61089f8582610821565b865550610907565b601f1984166108b586610687565b60005b828110156108dd578489015182556001820191506020850194506020810190506108b8565b868310156108fa57848901516108f6601f891682610803565b8355505b6001600288020188555050505b505050505050565b600082825260208201905092915050565b7f596f7520617265206e6f7420617574686f72697a656400000000000000000000600082015250565b600061095660168361090f565b915061096182610920565b602082019050919050565b6000602082019050818103600083015261098581610949565b905091905056fea264697066735822122016c14b077e2dff506e537de8a8a44f32d09091c17bc93c7a52a328862557398a64736f6c634300081c0033",
	"linkReferences": {},
	"deployedLinkReferences": {}
}